:020000040800F2
:2000000000000220850300080D03000813030008190300081F03000825030008000000007A
:200020000000000000000000000000002B0300083903000800000000470300085503000894
:20004000D5030008D5030008D5030008D5030008D5030008D5030008D5030008D5030008A0
:20006000D5030008D5030008D5030008D5030008D5030008D5030008D5030008D503000880
:20008000D5030008D5030008D5030008D5030008D5030008D5030008D5030008D503000860
:2000A000D5030008D5030008D5030008D5030008D5030008D5030008D5030008D503000840
:2000C000D5030008D5030008D5030008D5030008D5030008D5030008D5030008D503000820
:2000E000D5030008D5030008D5030008D5030008D5030008D5030008D5030008D503000800
:20010000D5030008D5030008D5030008D5030008D5030008D5030008D5030008D5030008DF
:20012000D5030008D5030008D5030008D5030008D50300080000000000000000D50300087F
:20014000D5030008D5030008D5030008D5030008D5030008D5030008D5030008D50300089F
:20016000D5030008D5030008D5030008D5030008D5030008D5030008D5030008000000005F
:2001800000000000D50300080000000000000000D50300080000000000000000D5030008BF
:2001A000000000000000000000000000D5030008D5030008D5030008D5030008D5030008DF
:2001C000D503000810B5054C237833B9044B13B10448AFF300800123237010BD0400002079
:2001E000000000004804000808B5034B1BB103490348AFF3008008BD00000000080000202E
:200200004804000880B483B000AF78600B46FB701346BB70BB78012B0AD17B681A68FB784A
:200220005B00012101FA03F31A437B681A600AE07B681B68FA785200032101FA02F2D2435A
:200240001A407B681A6000BF0C37BD465DF8047B704780B483B000AF78600B46FB70134654
:20026000BB707B685B69FA78012101FA02F2D2431A407B685A617B685B69B978FA7801FAD7
:2002800002F21A437B685A6100BF0C37BD465DF8047B704780B500AF184B1B68174A43F081
:2002A00001031360012205211548FFF7ABFF012205211348FFF7CDFF124B00221A6004E03E
:2002C000104B1B6801330F4A13600E4B1B680E4A9342F5DD002205210948FFF7BAFF094BC9
:2002E00000221A6004E0074B1B680133054A1360044B1B68044A9342F5DDD8E73038024083
:2003000000000240200000207F38010080B400AFFEE780B400AFFEE780B400AFFEE780B417
:2003200000AFFEE780B400AFFEE780B400AF00BFBD465DF8047B704780B400AF00BFBD468C
:200340005DF8047B704780B400AF00BFBD465DF8047B704780B500AF00F03EF800BF80BDDC
:2003600080B400AF064BD3F88830054A43F47003C2F8883000BFBD465DF8047B704700BF4F
:2003800000ED00E0DFF834D00D480E490E4A002302E0D458C4500433C4188C42F9D30B4A6A
:2003A0000B4C002301E013600432A242FBD3FFF7D7FF00F025F8FFF76DFF70470000022073
:2003C0000000002004000020680400080400002028000020FEE7000080B400AF064B1B784D
:2003E0001A46064B1B681344044A136000BFBD465DF8047B704700BF000000202400002041
:2004000070B50D4D0D4C641BA4100026A64209D10B4D0C4C00F018F8641BA4100026A642F8
:2004200005D170BD55F8043B98470136EEE755F8043B98470136F2E76004000860040008EF
:200440006004000864040008F8B500BFF8BC08BC9E467047F8B500BFF8BC08BC9E467047C2
:20046000E9010008C501000801000000FFFFFFFFFFFFFFFFFFFFFFFFFFFFFFFFFFFFFFFFCF
:00000001FF
